:020000040800F2
:10000000001E00201947000879050008C9120008E1
:100010007B0500087F05000883050008000000003C
:10002000000000000000000000000000870500083C
:1000300089050008000000005B1200088B0500081D
:1000400033470008334700083347000833470008A8
:100050003347000833470008334700083347000898
:100060003347000833470008334700083347000888
:10007000930500083347000833470008334700085A
:100080003347000833470008334700083347000868
:100090003347000833470008334700083347000858
:1000A0003347000833470008334700083347000848
:1000B0003347000833470008334700083347000838
:1000C0003347000833470008334700083347000828
:1000D0003347000895050008A7050008A905000892
:1000E0003347000833470008334700083347000808
:1000F00033470008334700083347000833470008F8
:1001000033470008334700083347000833470008E7
:1001100033470008334700083347000833470008D7
:1001200033470008334700083347000833470008C7
:1001300000F002F800F0B5F80AA090E8000C824444
:100140008344AAF10107DA4501D100F0AAF8AFF221
:10015000090EBAE80F0013F0010F18BFFB1A43F0A5
:100160000103184724090100440901000A444FF023
:10017000000C10F8013B13F0070408BF10F8014B06
:100180001D1108BF10F8015B641E05D010F8016B4B
:10019000641E01F8016BF9D113F0080F1EBF10F8AF
:1001A000014BAD1C0C1B09D16D1E58BF01F801CBD2
:1001B000FAD505E014F8016B01F8016B6D1EF9D555
:1001C0009142D6D37047000000230024002500266A
:1001D000103A28BF78C1FBD8520728BF30C148BFAA
:1001E0000B6070476E290EF0F98070290EF0428284
:1001F00066290FF0618465290FF05E8467290FF08E
:100200005B8461290FF05A8403681B0A28BF41F000
:10021000800169290EF0A68064290EF0A38075295B
:100220000EF0A0806F290EF0CD8178290EF00E829D
:10023000E9290EF06581E4290EF06281F5290EF0BE
:100240005F81EF290EF0CA81F8290EF00D82036854
:10025000DB0928BF41F0800163290EF0198773295B
:100260000EF01E87E3290EF02987F3290EF02E8762
:10027000002070471FB50DF0E3FF040000200021AF
:100280000FF0D8FB401C6060002000210FF0FEFB47
:10029000E060002000210FF0E3FB20611FBD10B5DE
:1002A00010BD0DF0A7FF1146FFF7E4FF00F02CF999
:1002B0000DF0EEFF03B4FFF7F2FF03BC0EF02AFFD0
:1002C000002400F075F913E0214634A006F01AFD71
:1002D000641C002000F086F9322008F06EFB35A087
:1002E00006F010FD002000F090F9322008F065FBC8
:1002F000EAE7002400F05CF913E0214630A006F0A4
:1003000001FD641C012000F06DF9322008F055FB5E
:1003100031A006F0F7FC012000F077F9322008F058
:100320004CFBEAE770477FB5052014214FF40072BB
:100330002C4BCDE90032CDE9021000232A4A2BA133
:100340002B4808F016F9054615B9294808F081F937
:10035000082014218201274BCDE90032CDE902109B
:100360000023254A25A1274808F003F9054615B9B9
:10037000244808F06EF9142008210B020022CDE970
:100380000010AFF25F0120A008F0CAF9044614B1D2
:10039000204608F05EF9002004B070BD6C65643042
:1003A000206F6E2C20636F756E74203A2025640DCB
:1003B0000A0000006C656430206F66660D0A00005C
:1003C0006C656431206F6E2C20636F756E74203AFB
:1003D0002025640D0A0000006C656431206F66669C
:1003E0000D0A0000C8010020C10200086C6564000D
:1003F000C803002048040020F30200086C65643143
:100400000000000048060020696E697400000000CA
:1004100010B500214FF0006000F0D5FF10BD10B501
:1004200006F09CF804F0A7F906F0A7F810BD70B527
:10043000FFF7EEFF164800686422B0FBF2F1B1F15D
:10044000807F00D31DE021F07F40401E4FF0E0226E
:10045000506150170F22002807DA13071D0E0D4BAD
:1004600000F00F04241F1D5503E013071C0E0A4B58
:100470001C5400BF00204FF0E02290610720106163
:1004800000BF00F0ADFD05A006F0A2FC70BD0000AD
:100490003400002018ED00E000E400E075617274A3
:1004A0003100000004460D461BA006F02BFC21463F
:1004B00023A006F027FC294626A006F023FC00BF57
:1004C000FEE710B5FFF7B3FF06F03DFC04F044F97A
:1004D00007F023FC08F0C8FC2349244806F077FD08
:1004E00007F0D5FD00F042F904F0BBF9FFF71BFF60
:1004F0000DF0ACFA1EA00CF07FFF08F0B6FC04F083
:10050000A1FB07F0E0FD10BD10B500F08FFEFFF776
:10051000D8FF002010BD00000A0D2057726F6E67D3
:1005200020706172616D657465722076616C7565AD
:10053000206465746563746564206F6E0D0A000045
:100540002020202020202066696C65202025730D46
:100550000A000000202020202020206C696E6520E9
:100560002025640D0A00000000000120001E00206C
:100570007561727431000000704700BFFEE700BF74
:10058000FEE700BFFEE77047704710B5FFF747FF73
:1005900010BD704710B505F0E1FF044800F084FB82
:1005A00005F0EBFF10BD70477047000050070020BA
:1005B00008B50121482002F0A4FE10208DF80300A8
:1005C00003208DF802002020ADF8000069462E4877
:1005D00001F0F2FD2020ADF8000069462B4801F043
:1005E000EBFD08BD10B5044614B1012C0AD104E09E
:1005F0002021254801F0BFFF05E02021234801F01C
:10060000BAFF00E000BF00BF10BD10B5044614B132
:10061000012C0AD104E020211B4801F0D7FF05E09E
:1006200020211A4801F0D2FF00E000BF00BF10BD3A
:1006300070B505460C461648007820B9FFF7B8FF9C
:100640000120134908706DB914B1012C08D103E0E1
:100650000020FFF7DAFF04E00020FFF7C3FF00E00F
:1006600000BF00BF012D0DD114B1012C08D103E052
:100670000120FFF7CAFF04E00120FFF7B3FF00E00D
:1006800000BF00BF70BD0000000C01400018014019
:100690000000002002460020704710B504460020EC
:1006A00010BDF8B506460F4614466EB900200090FE
:1006B00027237A4A7AA17EA006F024FB00BF9DF88A
:1006C00000000028FBD000BF102F02D0112F1BD13B
:1006D00004E0254602F06FFF286015E02546012161
:1006E0004FF0C05002F036FE012002F02EFA02F068
:1006F000A6FF286802F068FF02F0A1FF4AF2A551A8
:10070000042000F049FF00BF00BF0020F8BD10B575
:100710004FF4001401214FF0C05002F01BFE0120E5
:1007200002F013FA00F0DAFE012002F0CEFC00BF66
:10073000412002F037FB10B9601E0400F8D114B953
:100740004FF0FF3010BD4FF4807002F01DFD01200E
:1007500002F034FD02F07BFF02F071FF47F6FF70FC
:1007600002F03FFF02F06BFF0020EBE710B5052021
:1007700057490875042000F076FFA0F52541A539FA
:100780000CD054A006F0BEFA58A006F0BBFAFFF752
:10079000BEFF28B161A006F0B5FA10BD02F057FF08
:1007A00000204B494862634888620020C862624862
:1007B000086300204863614888630020C8630322FF
:1007C0005FA1434804F020F800BFE6E738B50446CF
:1007D000002000905AA003F0F1FF05463DB16A46A3
:1007E0001021284604F037F90CB1009820600098D9
:1007F00038BD2DE9F84306460F469046002468466A
:10080000FFF7E4FF68460DF0F5FA044634B1A6F2AE
:100810006C706061781E2061C4F80C8020460DF079
:100820000AFB009046A003F0C9FF054625B16A46C1
:1008300011212846FFF735FFBDE8F8832DE9F8437D
:1008400006460F46904600246846FFF7BFFF6846FD
:100850000DF0D0FA04461CB1A6606760C4F80080B1
:1008600020460DF0E8FA009035A003F0A7FF0546FA
:1008700025B16A4611212846FFF713FFBDE8F8832A
:1008800038B56846FFF7A2FF68460DF0ABFA04469C
:1008900021462CA006F036FA38BD000059FB0008AE
:1008A00064657620213D2052545F4E554C4C00002B
:1008B0002825732920617373657274206661696CE1
:1008C00065642061742025733A2564200A000000C5
:1008D000C8060020727463206973206E6F742063F1
:1008E0006F6E666967757265640A0000706C656199
:1008F000736520636F6E66696775726520776974CA
:1009000068207365745F6461746520616E64207330
:1009100065745F74696D650A00000000727463207D
:10092000636F6E666967757265206661696C2E2EED
:100930002E0D0A00950600089B060008A306000875
:100940007274630025730A0038B50546EC6BA87D08
:1009500010F0100F3AD1E88A10F4807F09D04022BD
:100960000021606805F04FFE00206168086461683E
:100970004864E88A10F4006F20D0A068006868B965
:10098000002000902F23F44AF4A1FEA006F0BAF94B
:1009900000BF9DF800000028FBD000BF0020A16828
:1009A0008860A168486010200090A16801F14402AD
:1009B00001F10C005023FBA106F076FF0121206815
:1009C00003F077F8E88A40F01000E882002038BD94
:1009D0000246002070470146002070472DE9F05F75
:1009E00080468B4616461F4635464FF00009D8F81C
:1009F0003C40B8F8160010F4807F29D025E000F0C4
:100A000015FC82466068006C6168496C884212D0AF
:100A10006068016C405C05F8010B7F1E6068006C2B
:100A2000401C616808646068006C402809D300209D
:100A30006168086405E06FF00309504600F0FAFBB6
:100A400005E0504600F0F6FB00BF002FD7D10DE0C7
:100A500009E003E02068808828706D1C2068008809
:100A600010F0200FF6D1A81BB842F2D3484605F08B
:100A7000A9FDA81BBDE8F09FF8B504460E46154633
:100A80006CB9002000908E23C74AC8A1BDA006F013
:100A900039F900BF9DF800000028FBD000BF0021FD
:100AA000204601F02DF8E66065600121204601F046
:100AB00027F8F8BD2DE9F84F804691461F464FF0C4
:100AC000000A4E46D8F83C40B8F8160010F4806F83
:100AD0000DD000200090A923BA4ABBA1A9A006F01E
:100AE00011F900BF9DF800000028FBD064E0B8F8C1
:100AF000160010F4006F31D0A16801F10C004FF026
:100B0000FF3106F0F9FF054615B96FF0040A24E03D
:100B10002E606F600020A86000F088FB8346A0680C
:100B20008068E860A068806810B1A068806885600F
:100B3000A0688560A068406858B9A0684560A3684F
:100B40005B685A68A3685B681968A3681868FFF750
:100B500093FF584600F06EFB00BF2DE098F816009A
:100B600010F0400F1AD016E030780A2808D100BFE4
:100B70002068008810F0800FFAD00D20216888804E
:100B800000BF2068008810F0800FFAD0307821680C
:100B90008880761C7F1E002FE6D10DE00AE000BFA2
:100BA0002068008810F0800FFAD0307821688880A3
:100BB000761C7F1E002FF2D1504605F003FDA6EBF8
:100BC0000900BDE8F88FF8B504460E46174674B91B
:100BD000002000904FF482737C4A7DA169A006F04A
:100BE00091F800BF9DF800000028FBD000BFE56B26
:100BF000012E0AD0022E11D1E08A40F02000E082BE
:100C00000021286802F055FF08E0E08A20F020006B
:100C1000E0820121286802F04CFF00BF00BF0020E5
:100C2000F8BDF8B504460F4615461E4674B90020B7
:100C3000009040F21F136A4A6AA152A006F062F8BF
:100C400000BF9DF800000028FBD000BF15F4007F16
:100C500002D115F4806F0ED0002000904FF49273F3
:100C60005F4A59A147A006F04DF800BF9DF800006B
:100C70000028FBD000BF00202075E06120625E48A4
:100C800060625E48A0625E48E0625E4820635E4843
:100C900060635E48A063E663A8B240F00302394691
:100CA000204603F0B1FDF8BDF8B50546EC6B40F207
:100CB0002551206803F05FFB00284BD0E88A10F430
:100CC000807F0ED1002000904FF49F73504A51A1B5
:100CD0002CA006F017F800BF9DF800000028FBD0FC
:100CE00000BF29E000F0A2FA06462068808861680B
:100CF0004A6C88546068406C401C61684864606855
:100D0000406C402802D30020616848646068406CF1
:100D10006168096C88420BD16068006C401C616896
:100D200008646068006C402802D300206168086491
:100D3000304600F07FFA00BF2068008810F0200FD6
:100D4000D0D140F22551206803F09FFBE86908B13B
:100D5000606873E08AE0000068FB000875617274E7
:100D60002D3E646D615F74782D3E646D615F6368D4
:100D7000616E6E656C20213D2052545F4E554C4C87
:100D800000000000282573292061737365727420A8
:100D90006661696C65642061742025733A2564205E
:100DA0000A000000646E000077FB0008646D615F5C
:100DB0006368616E6E656C20213D2052545F4E5514
:100DC0004C4C00008CFB0008300000009CFB00082D
:100DD00064657620213D2052545F4E554C4C0000F6
:100DE000AEFB000864657669636520213D2052549E
:100DF0005F4E554C4C00000049090008D10900081D
:100E0000D7090008DD090008B50A0008C70B00086B
:100E1000C4FB00086465766963652D3E666C616796
:100E200020262052545F4445564943455F464C4175
:100E3000475F494E545F525800000000006C6168E3
:100E4000496C884207D96068006CC0F14000616855
:100E5000496C084404E06068406C6168096C401AA1
:100E6000064631462846EA69904700BF40F22661AF
:100E7000206803F080FA20B140F22661206803F078
:100E800004FBF8BDF8B50546EC6BE88A10F4006F7A
:100E90000FD1002000904FF4BE73254A25A1AFF278
:100EA0001C1005F02FFF00BF9DF800000028FBD0AC
:100EB00000BFA06846687EB9002000904FF4C07360
:100EC0001B4A26A1AFF2441005F01CFF00BF9DF89D
:100ED00000000028FBD000BF286A18B131682846FE
:100EE0002A6A904700F0A2F90746B068A1684860F6
:100EF000A068406810B90020A1688860384600F0FA
:100F000099F9304606F073FEA068406850B1A368B6
:100F10005B685A68A3685B681968A3681868FFF77C
:100F2000ABFD04E0A1680868002100F0E9FDF8BD10
:100F3000D5FB00086465766963652D3E666C616764
:100F400020262052545F4445564943455F464C4154
:100F5000475F444D415F5458000000006461746174
:100F60005F6E6F646520213D2052545F4E554C4C9E
:100F70000000000010B50121084602F0C2F901216D
:100F800044F2040002F0BDF910BD08B54FF48060D2
:100F9000ADF8000004208DF8030069462E4801F0EA
:100FA0000BF94FF40070ADF8000003208DF802003B
:100FB00018208DF803006946274801F0FDF808BDA8
:100FC00008B525208DF8000001208DF801008DF86E
:100FD00002008DF80300684600F0A5F908BD7047CF
:100FE00000B587B0FFF7C6FFFFF7CFFFFFF7E8FFB9
:100FF000FFF7F5FF4FF4E13003900020ADF810004B
:10100000ADF81200ADF81400ADF818000C20ADF8E2
:1010100016000020ADF80400ADF806004FF4007093
:10102000ADF808000020ADF80A0003A90B4802F053
:10103000FCFB01A9094802F0E5FC094B40F2431210
:1010400008A10A48FFF7EDFD012240F225510348AF
:1010500002F05CFD07B000BD00080140003801400F
:1010600004000020756172743100000050070020F8
:10107000F0B504460D461646301D20F007004038F6
:101080000146002203E0324F41F82270521C102A20
:10109000F9D30D624FF0000CC1F824C0C1F828C08C
:1010A000C1F82CC0C1F830C04B638C634FF0807C1A
:1010B000C1F83CC0F0BD27490860704770B50446D0
:1010C0002448006838B12046224909688847054607
:1010D00005B970BD00BF20A0E16905F013FE22A094
:1010E000A16905F00FFE24A0616905F00BFE26A0A2
:1010F000216905F007FE28A0E16805F003FE2AA09B
:10110000A16805F0FFFD2CA0616805F0FBFD2EA095
:10111000216805F0F7FD07F063FA054629462EA081
:1011200005F0F0FD07F056FF00BFFEE708B531A05F
:1011300005F0E8FD002000909423324A32A133A04C
:1011400005F0E0FD00BF9DF800000028FBD008BDC1
:10115000EFBEADDE100000207073723A20307825AB
:101160003038780A000000002070633A203078257B
:101170003038780A00000000206C723A2030782560
:101180003038780A000000007231323A2030782579
:101190003038780A000000007230333A2030782569
:1011A0003038780A000000007230323A203078255A
:1011B0003038780A000000007230313A203078254B
:1011C0003038780A000000007230303A203078253C
:1011D0003038780A0000000068617264206661752A
:1011E0006C74206F6E207468726561643A20257398
:1011F0000A00000073687574646F776E2E2E2E0AD5
:1012000000000000EDFB00083000000028257329D5
:1012100020617373657274206661696C6564206116
:10122000742025733A2564200A000000EFF3108033
:1012300072B6704780F310887047284A1368012BF4
:1012400004D04FF001031360254A1060254A116055
:1012500025484FF0805101607047EFF3108272B65D
:101260001E48016891B14FF0000101601C480168FF
:1012700029B1EFF3098121E9F00F006801601949F4
:1012800009680968B1E8F00F81F3098882F31088D2
:101290004EF0040E70471349086011494FF00000EA
:1012A00008600E494FF00100086010484FF47F01BC
:1012B000D0F8002041EA020101600B484FF0805154
:1012C000016062B6704700BFEFF3098000B5FFF719
:1012D000F5FE5DF804EB4EF0040E70471C00002094
:1012E000140000201800002004ED00E020ED00E0D4
:1012F00010B50446B4F5E06F0BD0B4F5C06F08D05C
:10130000B4F5A06F05D0B4F5806F02D0B4F5407F7E
:1013100000D103E063215EA0FFF7C4F869482043D1
:101320006949086010BD2DE9F041044600250027F9
:101330000F26E07810B1E078012800D103E0752194
:1013400053A0FFF7AFF86078102800DA03E07621A9
:101350004FA0FFF7A7F8A078102800DA03E0772164
:101360004BA0FFF79FF8E07808B35748006800F4F7
:10137000E060C0F5E060050AC5F10407EE40607862
:1013800000FA07F5A078304005432D014F48227838
:101390008554207800F01F010120884021784911F0
:1013A0004FF0E02202EB8101C1F8000109E0207852
:1013B00000F01F010120884045492278521141F870
:1013C0002200BDE8F08170B504460D46B4F1005F1F
:1013D00002D0B4F1006F00D103E09F212CA0FFF7F1
:1013E00061F83C48854200D203E0A02128A0FFF725
:1013F00059F8394905EA010020433349091F0860BB
:1014000070BD70B504460D46102C03D0042C01D0DD
:10141000022C00D103E0B2211DA0FFF743F80DB16B
:10142000012D00D103E0B32119A0FFF73BF83DB136
:101430002548001D006820432349091D086006E077
:101440002148001D0068A0431F49091D086070BDA8
:1014500010B50446042C01D0601D00D103E0CA2160
:101460000BA0FFF71FF8042C08D14FF0E020006913
:1014700040F004004FF0E021086107E04FF0E02069
:10148000006920F004004FF0E021086110BD000069
:101490002E2E5C74686972645F706172745C535460
:1014A0004D3332463130785F5374645065726970E1
:1014B000685F4472697665725C7372635C6D6973B0
:1014C000632E63000000FA050CED00E000E400E08C
:1014D00080E100E0FFFF0F0080FFFF1F10B501203B
:1014E00001F0B3FF002001F0B0FF10BD10B50446BD
:1014F0000CB1012C00D103E089219CA0FEF7D2FFA2
:10150000AA48046010BD10B504460CB1012C00D1EE
:1015100003E0962195A0FEF7C5FFA448001F0460D4
:1015200010BD10B504460CB1012C00D103E0A3217D
:101530008EA0FEF7B7FF9D488430046010BD70B5E3
:10154000044600253CB1802C05D0B4F5807F02D044
:10155000B4F5407F00D103E0B82184A0FEF7A2FFDC
:10156000934805884FF67F40054025439048058005
:1015700070BD70B5044600257F2C00DC03E0CD2152
:101580007AA0FEF78FFF8A4805884FF680700540E5
:1015900025438748058070BD38B504460D460020B8
:1015A0000090042C51D0082C4FD00C2C4DD0102C76
:1015B0004BD0142C49D0182C47D01C2C45D0202CB3
:1015C00043D0242C41D0282C3FD0402C3DD0442C5B
:1015D0003BD0482C39D04C2C37D0502C35D0542C03
:1015E00033D0582C31D05C2C2FD0602C2DD0642CD3
:1015F0002BD0682C29D06C2C27D0702C25D0742CA3
:1016000023D0782C21D07C2C1FD0802C1DD0842C72
:101610001BD0882C19D08C2C17D0902C15D0942C42
:1016200013D0982C11D09C2C0FD0A02C0DD0A42C12
:101630000BD0A82C09D0AC2C07D0B02C05D0B42CE2
:1016400003D0B82C01D0BC2C00D103E0E32147A08B
:10165000FEF728FF56482C38009000982044009050
:101660000098056038BD38B5044600200090042C71
:1016700051D0082C4FD00C2C4DD0102C4BD0142C0A
:1016800049D0182C47D01C2C45D0202C43D0242CDA
:1016900041D0282C3FD0402C3DD0442C3BD0482C6E
:1016A00039D04C2C37D0502C35D0542C33D0582C2A
:1016B00031D05C2C2FD0602C2DD0642C2BD0682CFA
:1016C00029D06C2C27D0702C25D0742C23D0782CCA
:1016D00021D07C2C1FD0802C1DD0842C1BD0882C9A
:1016E00019D08C2C17D0902C15D0942C13D0982C6A
:1016F00011D09C2C0FD0A02C0DD0A42C0BD0A82C3A
:1017000009D0AC2C07D0B02C05D0B42C03D0B82C09
:1017100001D0BC2C00D103E0F62114A0FEF7C2FEDC
:1017200023482C38009000982044009000980088AE
:1017300038BD1E489C300068C0B270471C48083055
:10174000008840F001001A490831088070471748A6
:10175000A0300068C0B2704715480830008840F0DB
:101760000200134908310880704700002E2E5C7477
:10177000686972645F706172745C53544D333246B1
:101780003130785F5374645065726970685F447279
:10179000697665725C7372635C73746D3332663143
:1017A00030785F626B702E630000000004860D428B
:1017B0002C6C004010B50446F74884422AD0F64805
:1017C0001430844226D0F4482830844222D0F24893
:1017D0003C3084421ED0F048503084421AD0EE484B
:1017E0006430844216D0EC487830844212D0EB4802
:1017F00084420FD0E948143084420BD0E7482830A7
:10180000844207D0E5483C30844203D0E34850305E
:10181000844200D103E06F21E1A0FEF743FE20687F
:101820004FF6FE7108402060002020606060A060DC
:10183000E060D948844208D1D7480838406840F071
:101840000F00D549083948608AE0D34814308442F3
:1018500008D1D1480838406840F0F000CE49083936
:1018600048607DE0CC482830844208D1CA48083816
:10187000406840F47060C8490839486070E0C64864
:101880003C30844208D1C4480838406840F4704075
:10189000C1490839486063E0BF485030844208D1EC
:1018A000BD480838406840F47020BB49083948609A
:1018B00056E0B9486430844208D1B74808384068D7
:1018C00040F47000B4490839486049E0B2487830C3
:1018D000844208D1B0480838406840F07060AE4992
:1018E000083948603CE0AD48844206D1001F0068DA
:1018F00040F00F00211F086032E0A84814308442F5
:1019000008D1A648001F006840F0F000A349091F55
:10191000086025E0A1482830844208D19F48001F74
:10192000006840F470609D49091F086018E09B48FA
:101930003C30844208D19948001F006840F4704050
:101940009649091F08600BE094485030844207D143
:101950009248001F006840F470209049091F0860F9
:1019600010BD70B505460C4600268B4885422AD02E
:1019700089481430854226D087482830854222D0B5
:1019800085483C3085421ED08348503085421AD06D
:1019900081486430854216D07F487830854212D025
:1019A0007E4885420FD07D48143085420BD07B485D
:1019B0002830854207D079483C30854203D07748AB
:1019C0005030854200D103E0CF2175A0FEF76AFDBB
:1019D000A068102801D0A06800B903E0D02170A051
:1019E000FEF760FDE06820B1E068B0F5803F00D20E
:1019F00003E0D1216AA0FEF755FD2069402801D0FF
:101A0000206900B903E0D22165A0FEF74BFD6069B3
:101A1000802801D0606900B903E0D32160A0FEF7FF
:101A200041FDA06938B1A069B0F5807F03D0A069FD
:101A3000B0F5007F00D103E0D42159A0FEF732FDBC
:101A4000E06938B1E069B0F5806F03D0E069B0F5C6
:101A5000006F00D103E0D52151A0FEF723FD206ADD
:101A6000202801D0206A00B903E0D6214CA0FEF75F
:101A700019FD606AB0F5405F09D0606AB0F5005F9B
:101A800005D0606AB0F5805F01D0606A00B903E0FC
:101A9000D72143A0FEF706FDA06AB0F5804F01D024
:101AA000A06A00B903E0D8213DA0FEF7FBFC2E6838
:101AB00047F6F0708643216AA0680843216908430D
:101AC00061690843A1690843E1690843616A084301
:101AD000A16A084306432E60E06868602068A86039
:101AE0006068E86070BD0021016041608160C16094
:101AF000016141618161C16101624162816270473E
:101B000070B504460D46244884422AD02248143039
:101B1000844226D020482830844222D01E483C30BF
:101B200084421ED01C48503084421AD01A48643077
:101B3000844216D018487830844212D01748844224
:101B40000FD01648143084420BD0144828308442F9
:101B500007D012483C30844203D0104850308442B1
:101B600000D104E040F229110DA0FEF79BFC0DB15D
:101B7000012D00D104E04FF4957109A0FEF792FC0D
:101B800025B1206840F00100206004E020684FF695
:101B9000FE710840206070BD080002400804024049
:101BA0002E2E5C74686972645F706172745C535449
:101BB0004D3332463130785F5374645065726970CA
:101BC000685F4472697665725C7372635C73746D8E
:101BD0003332663130785F646D612E63000000003F
:101BE00070B504460D461646FE4884422AD0FD488C
:101BF0001430844226D0FB482830844222D0F94851
:101C00003C3084421ED0F748503084421AD0F54808
:101C10006430844216D0F3487830844212D0F248BF
:101C200084420FD0F048143084420BD0EE48283064
:101C3000844207D0EC483C30844203D0EA4850301C
:101C4000844200D105E040F24911AFF2AC00FEF74A
:101C500029FC35F00E0001D105B105E04FF4A57166
:101C6000AFF2C400FEF71EFC0EB1012E00D105E05C
:101C700040F24B11AFF2D800FEF714FC1EB1206801
:101C80002843206002E02068A843206070BD70B542
:101C900004460D46D34884422AD0D24814308442A8
:101CA00026D0D0482830844222D0CE483C308442CE
:101CB0001ED0CC48503084421AD0CA486430844286
:101CC00016D0C8487830844212D0C74884420FD01A
:101CD000C548143084420BD0C3482830844207D012
:101CE000C1483C30844203D0BF485030844200D1C8
:101CF00005E04FF4B271AFF25810FEF7D3FB656008
:101D000070BD10B50446B74884422AD0B548143097
:101D1000844226D0B3482830844222D0B1483C3097
:101D200084421ED0AF48503084421AD0AD4864304F
:101D3000844216D0AB487830844212D0AA488442FC
:101D40000FD0A948143084420BD0A74828308442D1
:101D500007D0A5483C30844203D0A3485030844289
:101D600000D105E04FF4BB71AFF2CC10FEF79AFB47
:101D7000606880B210BD70B5044600250026012CB5
:101D80007ED0022C7CD0042C7AD0082C7ED0102C53
:101D90007CD0202C7AD0402C78D0802C76D0B4F512
:101DA000807F73D0B4F5007F70D0B4F5806F6DD0B4
:101DB000B4F5006F6AD0B4F5805F67D0B4F5005F0A
:101DC00064D0B4F5804F61D0B4F5004F5ED0B4F567
:101DD000803F5BD0B4F5003F58D0B4F5802F55D08C
:101DE000B4F5002F52D0B4F5801F4FD0B4F5001FCA
:101DF0004CD0B4F5800F49D0B4F5000F46D0B4F103
:101E0000807F43D0B4F1007F40D0B4F1806F3DD0EB
:101E1000B4F1006F3AD07548844237D0A4F18050B5
:101E2000801E33D0801E31D0001F2FD008382DD017
:101E300010382BD0203829D0403827D06B48FF30BD
:101E4000844223D06A48844220D06A4884421DD00C
:101E5000694884421AD0B4F1102F17D04FEAF030FD
:101E6000844213D06548844210D0654884420DD026
:101E7000644884420AD06448844207D0634800E042
:101E800004E0844202D06248844200D105E040F27E
:101E9000B711AFF2F420FEF705FB14F0805F03D01A
:101EA00051480838066802E04E480838066826425D
:101EB00001D0012500E00025284670BD10B504467C
:101EC00014F0704F02D05348044201D104B105E030
:101ED00040F20E21AFF23830FEF7E4FA14F0805FE2
:101EE00003D04148001F046002E03E4808384460C7
:101EF00010BD70B5044600250026012C70D0022CC0
:101F00006ED0042C6CD0082C6AD0102C68D0202CF9
:101F100066D0402C64D0802C62D0B4F5807F5FD036
:101F2000B4F5007F5CD0B4F5806F59D0B4F5006F84
:101F300056D0B4F5805F53D0B4F5005F7FD0B4F5D0
:101F4000804F7CD0B4F5004F79D0B4F5803F76D087
:101F5000B4F5003F73D0B4F5802F70D0B4F5002FE6
:101F60006DD0B4F5801F6AD0B4F5001F67D0B4F50A
:101F7000800F64D0B4F5000F61D0B4F1807F5ED0E3
:101F8000B4F1007F5BD0B4F1806F58D0B4F1006F32
:101F900055D01648844252D0A4F18050801E4ED0B5
:101FA000801E4CD0001F4AD0083848D0103846D088
:101FB000203844D0403842D00C48FF3084423ED0D4
:101FC0000B4884423BD00B48844238D00A488442B4
:101FD00035D0B4F1102F32D04FEAF03084421BE0FC
:101FE0002DE000000800024008040240010000103B
:101FF0000002001000040010000800100040001053
:102000000080001000000110000002100000041009
:10201000000008100000F0EF11D0214884420ED0DB
:10202000204884420BD02048844208D01F48844274
:1020300005D01F48844202D01E48844200D105E0EA
:1020400040F25921AFF2A840FEF72CFA14F0805F5D
:1020500002D01948066801E018480668264201D0F7
:10206000012500E00025284670BD10B5044614F097
:10207000704F02D01248044201D104B105E040F291
:10208000AF21AFF2E440FEF70DFA14F0805F03D009
:102090000948001D046001E00848446010BD0000CC
:1020A000004000100080001000000110000002102D
:1020B000000004100000081000040240000002406C
:1020C0000000F0EF10B50446FC48844211D0FC48F3
:1020D00084420ED0FB4884420BD0FB48844208D097
:1020E000FA48844205D0FA48844202D0F948844232
:1020F00000D103E06F21F8A0FEF7D4F9EF48844245
:1021000008D10121042001F04EF90021042001F042
:102110004AF946E0EA48844208D10121082001F04A
:1021200042F90021082001F03EF93AE0E5488442F6
:1021300008D10121102001F036F90021102001F012
:1021400032F92EE0E048844208D10121202001F03C
:102150002AF90021202001F026F922E0DB48844200
:1021600008D10121402001F01EF90021402001F09A
:102170001AF916E0D648844208D10121802001F0E6
:1021800012F90021802001F00EF90AE0D1488442C2
:1021900007D10121801501F006F90021A01501F0F9
:1021A00002F910BD10B50121084601F0FCF800212C
:1021B000012001F0F8F810BD2DE9F05F05460C464E
:1021C0004FF00009CA4600260027B046B346BB4878
:1021D000854211D0BA4885420ED0BA4885420BD00C
:1021E000B948854208D0B948854205D0B8488542EB
:1021F00002D0B848854200D103E0B221B6A0FEF774
:1022000051F9E078A0B1E078042811D0E0782828CE
:102210000ED0E07848280BD0E078142808D0E07879
:10222000102805D0E0781C2802D0E078182800D1CA
:1022300003E0B321A8A0FEF735F9002010B92088EB
:1022400000B103E0B421A4A0FEF72CF9E07800F07F
:102250000F09E07810F0100F10D0A078012805D0F9
:10226000A078022802D0A078032800D103E0BB2187
:1022700099A0FEF717F9A07840EA0909207838B349
:10228000D5F8008000261FE0012000FA06F720881C
:1022900000EA070ABA4516D1B7000F2000FA07FB7B
:1022A00028EA0B0809FA07F040EA0808E07828282D
:1022B00003D10120B040686105E0E078482802D1F0
:1022C0000120B0402861761C082EDDD3C5F80080BF
:1022D0002088FF282BDDD5F80480002623E006F1B6
:1022E0000800012101FA00F7208800EA070ABA4530
:1022F00018D1B7000F2000FA07FB28EA0B0809FAEB
:1023000007F040EA0808E078282803D106F1080021
:1023100081406961E078482804D106F10800012174
:1023200081402961761C082ED9D3C5F80480BDE808
:10233000F09F4FF6FF710180022181700421C1706E
:10234000704770B505460C4600265C48854211D0A2
:102350005B4885420ED05B4885420BD05A48854287
:1023600008D05A48854205D05948854202D059487C
:10237000854200D104E04FF48F7157A0FEF792F828
:10238000012C25D0022C23D0042C21D0082C1FD0C6
:10239000102C1DD0202C1BD0402C19D0802C17D0F5
:1023A000B4F5807F14D0B4F5007F11D0B4F5806F00
:1023B0000ED0B4F5006F0BD0B4F5805F08D0B4F543
:1023C000005F05D0B4F5804F02D0B4F5004F00D1C6
:1023D00004E040F21F1140A0FEF764F8A868204214
:1023E00001D0012600E00026304670BD10B504463D
:1023F0003248844211D0324884420ED0314884425F
:102400000BD03148844208D03048844205D030484F
:10241000844202D02F48844200D104E04FF49A71E4
:102420002DA0FEF73FF8A06880B210BD70B505463C
:102430000C4600262148854211D0214885420ED005
:10244000204885420BD02048854208D01F4885424D
:1024500005D01F48854202D01E48854200D104E0C5
:102460004FF4A2711CA0FEF71DF8012C25D0022C00
:1024700023D0042C21D0082C1FD0102C1DD0202CB0
:102480001BD0402C19D0802C17D0B4F5807F14D0ED
:10249000B4F5007F11D0B4F5806F0ED0B4F5006FA5
:1024A0000BD0B4F5805F08D0B4F5005F05D0B4F56B
:1024B000804F02D0B4F5004F2ED133E00008014028
:1024C000000C0140001001400014014000180140C0
:1024D000001C0140002001402E2E5C74686972646B
:1024E0005F706172745C53544D3332463130785FA3
:1024F0005374645065726970685F4472697665727E
:102500005C7372635C73746D3332663130785F670D
:1025100070696F2E6300000040F24511AFF2480071
:10252000FDF7C0FFE868204201D0012600E0002648
:10253000304670BD10B50446FE48844211D0FE48B6
:1025400084420ED0FD4884420BD0FD48844208D01E
:10255000FC48844205D0FC48844202D0FB488442B7
:1025600000D105E04FF4AD71AFF29400FDF79AFF92
:10257000E06880B210BD70B504460D46ED48844257
:1025800011D0ED4884420ED0EC4884420BD0EC4888
:10259000844208D0EB48844205D0EB48844202D004
:1025A000EA48844200D105E040F26911AFF2D80058
:1025B000FDF778FF002008B905B105E04FF4B571CB
:1025C000AFF2EC00FDF76EFF256170BD70B50446FB
:1025D0000D46D848844211D0D74884420ED0D748FF
:1025E00084420BD0D648844208D0D648844205D0D5
:1025F000D548844202D0D548844200D105E040F25B
:102600007911AFF22C10FDF74DFF002008B905B18C
:1026100005E04FF4BD71AFF24010FDF743FF656177
:1026200070BD70B505460C461646C248854211D0AD
:10263000C14885420ED0C14885420BD0C048854272
:1026400008D0C048854205D0BF48854202D0BF4867
:10265000854200D105E040F28D11AFF28410FDF704
:1026600021FF012C25D0022C23D0042C21D0082CB2
:102670001FD0102C1DD0202C1BD0402C19D0802C0A
:1026800017D0B4F5807F14D0B4F5007F11D0B4F525
:10269000806F0ED0B4F5006F0BD0B4F5805F08D01A
:1026A000B4F5005F05D0B4F5804F02D0B4F5004F0B
:1026B00000D105E04FF4C771AFF2E410FDF7F2FE70
:1026C0000EB1012E00D105E040F28F11AFF2F810EB
:1026D000FDF7E8FE0EB12C6100E06C6170BD70B5D5
:1026E00004460D469348844211D0934884420ED04C
:1026F000924884420BD09248844208D09148844248
:1027000005D09148844202D09048844200D105E02F
:102710004FF4D271AFF24020FDF7C4FEE56070BD0A
:1027200070B504460D464FF480368248844211D07D
:10273000814884420ED0814884420BD08048844234
:1027400008D08048844205D07F48844202D07F4828
:10275000844200D105E040F2B511AFF28420FDF7CC
:10276000A1FE002008B905B105E04FF4DB71AFF21E
:102770009820FDF797FE2E43A661A561A661A66984
:10278000A66970BD70B505460C4600263DB1012D09
:1027900005D0022D03D0032D01D0042D00D105E07A
:1027A0004FF4E971AFF2D020FDF77CFEECB1012CC3
:1027B0001BD0022C19D0032C17D0042C15D0052CBB
:1027C00013D0062C11D0072C0FD0082C0DD0092CBB
:1027D0000BD00A2C09D00B2C07D00C2C05D00D2CBB
:1027E00003D00E2C01D00F2C00D105E040F2D31104
:1027F000AFF21C30FDF756FE554806684FF6807064
:10280000064046EA051626435148066070BD10B5DD
:1028100004460CB1012C00D105E04FF4F371AFF286
:102820004830FDF73FFE4B48C46110BD2DE9F0472D
:1028300004460E460027B8460025A946012C77D04D
:10284000022C75D0042C73D0082C71D0A4F5A010E4
:1028500010386DD020386BD0A4F5B010403867D058
:10286000803865D03C48844262D03C4884425FD086
:102870003B4884425CD03B48844259D03A48844229
:1028800056D0B4F5805F53D0B4F5EA1F50D0B4F5FC
:10289000EB1F4DD0B4F5004F4AD03448844247D0A6
:1028A000A4F50010801E7CD0801E7AD0001F78D046
:1028B000083876D0B4F1201F73D0303871D02C484E
:1028C00084426ED02B4884426BD02B48844268D01F
:1028D0002A48844265D02A48844262D0B4F5011F58
:1028E0005FD0284884425CD0401C844259D0801C70
:1028F000844256D0001D844253D022480F30844277
:102900004FD020481F3084424BD01E483F30844275
:1029100047D01C487F30844243D01A48FF3084425D
:102920003FD0194884423CD01848844239D02FE027
:1029300037E0000000080140000C01400010014099
:102940000014014000180140001C0140002001401B
:1029500000000140000020420001180000021800A1
:102960000003180000081A00000C1A0001002000E3
:10297000000130000002300000043000001120008F
:102980000020200001000080000200800004008080
:102990006348844205D06348844202D0624884423E
:1029A00000D105E040F22A21AFF2D440FDF77AFDD4
:1029B0000EB1012E00D105E040F22B21AFF2E8402C
:1029C000FDF770FD04F00040B0F1004F02D1574810
:1029D000C56901E055484568C4F30349A7B204F44A
:1029E0004010B0F5401F08D125F070654F48406891
:1029F00020F070604D49486013E004F48010B0F599
:102A0000801F07D1032000FA09F825EA080545F0E0
:102A1000706506E0600D000107FA00F0854345F09F
:102A2000706526B1600D010107FA01F0054304F05D
:102A30000040B0F1004F02D13C48C56101E03B4885
:102A40004560BDE8F08770B505460C4600265DB1CF
:102A5000012D09D0022D07D0032D05D0042D03D060
:102A6000052D01D0062D00D105E040F26521AFF221
:102A70009850FDF717FDECB1012C1BD0022C19D09A
:102A8000032C17D0042C15D0052C13D0062C11D0F4
:102A9000072C0FD0082C0DD0092C0BD00A2C09D0F4
:102AA0000B2C07D00C2C05D00D2C03D00E2C01D0F4
:102AB0000F2C00D105E040F26621AFF2E450FDF7A3
:102AC000F1FCA007010F0F2000FA01F617480830AB
:102AD000A11050F82100B04314490831A21041F868
:102AE00022000846A11050F82100A107090F05FA9D
:102AF00001F108430D490831A21041F8220070BDD0
:102B000010B504460CB1012C00D105E04FF41E7144
:102B1000AFF23C60FDF7C6FC0548046010BD000044
:102B200000080080001000800020008000000140AC
:102B3000DC00204210B50121080700F05DFC0021F7
:102B40004FF0805000F058FC10BD10B504460CB199
:102B5000012C00D103E07F2155A0FDF7A3FC6448C0
:102B6000046210BD10B504460CB1012C00D103E085
:102B70008C214FA0FDF796FC5D48046110BD70B537
:102B8000044600256CB1202C0BD0402C09D0602CC1
:102B900007D0802C05D0A02C03D0C02C01D0E02C75
:102BA00000D103E0A22142A0FDF77CFC514805685A
:102BB00025F0E0052543056070BD10B504460CB155
:102BC000012C00D103E0B52139A0FDF76BFC4A4888
:102BD000046010BD70B504460D4600260CB1012CF2
:102BE00000D103E0C92132A0FDF75CFC012D01D02A
:102BF000022D00D103E0CA212DA0FDF753FC3D4872
:102C0000066826F00306264306603C48006840F04C
:102C100004003A490860012D01D130BF00E020BF17
:102C20003648006820F004003449086070BD31481F
:102C3000006840F004002F4908600846006840F032
:102C4000020008602D48006840F004002B4908602D
:102C500000BF00BF30BF704770B504460025012C8F
:102C600003D0022C01D0042C00D104E040F2091161
:102C70000FA0FDF717FC1F484068204201D0012536
:102C800000E00025284670BD10B50446012C01D097
:102C9000022C00D104E04FF4917105A0FDF702FC75
:102CA0001448006840EA84001249086010BD000022
:102CB0002E2E5C74686972645F706172745C535428
:102CC0004D3332463130785F5374645065726970A9
:102CD000685F4472697665725C7372635C73746D6D
:102CE0003332663130785F7077722E6300000000F7
:102CF00000000E4200700040A0000E4210ED00E007
:102D0000FE48006840F00100FC4908600846406841
:102D1000FB490840F949486008460068F9490840FD
:102D2000F64908600846006820F4802008600846DC
:102D3000406820F4FE0048604FF41F008860704730
:102D400010B504462CB1B4F5803F02D0B4F5802F05
:102D500000D104E040F21111EBA0FDF7A3FBE7481E
:102D6000006820F48030E54908600846006820F4D7
:102D700080200860B4F5803F03D0B4F5802F0ED1D9
:102D800006E0DE48006840F48030DC49086007E077
:102D9000DA48006840F4A020D849086000E000BF8D
:102DA00000BF10BD2DE9F041044600250026002794
:102DB000212C13D0312C11D0392C0FD0412C0DD017
:102DC000612C0BD07A2C09D07B2C07D07C2C05D021
:102DD0007D2C03D07E2C01D07F2C00D104E040F26A
:102DE0003451C9A0FDF75EFB6511012D02D1C34826
:102DF000066806E0022D02D1C048066A01E0BF481D
:102E0000466A04F01F050120A840304201D0012786
:102E100000E000273846BDE8F08138B5002000907A
:102E20000024002500BF3120FFF7BCFF05460098B5
:102E3000401C00900098B0F5A06F01D0002DF2D09A
:102E40003120FFF7AFFF08B1012400E00024204645
:102E500038BD70B5044600251F2C00DC04E04FF49B
:102E6000A971A9A0FDF71EFBA448056825F0F80587
:102E700045EAC405056070BD10B504460CB1012CCF
:102E800000D104E040F265119FA0FDF70BFBAE48B6
:102E9000046010BD70B505460C4600262DB1B5F591
:102EA000803F02D0B5F5403F00D104E040F27F11F1
:102EB00095A0FDF7F7FA4CB3B4F5802F26D0B4F502
:102EC000002F23D0B4F5402F20D0B4F5801F1DD0A3
:102ED000B4F5A01F1AD0B4F5C01F17D0B4F5E01F89
:102EE00014D0B4F5001F11D0B4F5101F0ED0B4F5F6
:102EF000201F0BD0B4F5301F08D0B4F5401F05D00B
:102F0000B4F5501F02D0B4F5601F00D104E04FF4B7
:102F1000C0717DA0FDF7C6FA7848466826F47C1695
:102F200045EA040006437548466070BD10B5044686
:102F30000CB1012C00D104E04FF4CA7172A0FDF76E
:102F4000B1FA8148046610BD70B5044600251CB175
:102F5000012C01D0022C00D104E04FF40E716AA0C4
:102F6000FDF7A0FA6548456825F00305254345604F
:102F700070BD6248406800F00C00704770B50446B0
:102F800000257CB1802C0DD0902C0BD0A02C09D02A
:102F9000B02C07D0C02C05D0D02C03D0E02C01D011
:102FA000F02C00D104E04FF4197157A0FDF77AFA24
:102FB0005248456825F0F0052543456070BD70B561
:102FC000044600255CB1B4F5806F08D0B4F5A06F5D
:102FD00005D0B4F5C06F02D0B4F5E06F00D104E0C5
:102FE00040F27E2148A0FDF75DFA4448456825F48B
:102FF000E0652543456070BD70B5044600255CB1B1
:10300000B4F5806F08D0B4F5A06F05D0B4F5C06FEB
:1030100002D0B4F5E06F00D104E04FF426713AA07D
:10302000FDF740FA3548456825F4605545EAC40582
:10303000456070BD70B504460D4614F0E00F01D137
:1030400004B104E040F2BF212FA0FDF72BFA0DB12F
:10305000012D00D104E04FF430712BA0FDF722FACE
:103060002DB12648407A20432449487204E0234881
:10307000407AA0432149487270BD10B504460CB196
:10308000012C00D104E040F2DB211FA0FDF70AFA79
:103090002E48046010BD70B50446002544B1B4F557
:1030A000804F05D0B4F5004F02D0B4F5404F00D1A9
:1030B00004E040F2023114A0FDF7F4F90F4845682E
:1030C00025F440452543456070BD10B504461CB14C
:1030D000012C01D0042C00D104E04FF450710AA05F
:1030E000FDF7E0F900201A490870044981F8200032
:1030F000012C2FD0042C35D130E00000001002400C
:103100000000FFF8FFFFF6FE2E2E5C746869726403
:103110005F706172745C53544D3332463130785F66
:103120005374645065726970685F44726976657241
:103130005C7372635C73746D3332663130785F72C6
:1031400063632E630000000000004242D800424248
:10315000201002400120F449087004E00520F249E3
:10316000087000E000BF00BF10BD10B504460CB1F0
:10317000012C00D105E040F26131AFF27400FDF79F
:1031800091F9EA48046010BD10B50446B4F5807F9B
:1031900005D0B4F5007F02D0B4F5407F00D105E042
:1031A00040F27231AFF2A000FDF77CF9DE48203822
:1031B000006A2043DC492039086210BD10B504467E
:1031C0000CB1012C00D105E04FF46071AFF2C800E2
:1031D000FDF768F9D5484438046010BD30B50021CA
:1031E000002200240023D04D203D6D6805F00C0125
:1031F00021B1042905D0082926D105E0CC4D056070
:1032000025E0CB4D056022E0C74D203D6D6805F4FB
:103210007012C54D203D6D6805F48034022505EB24
:1032200092421CB9C34D554305600CE0BE4D203D94
:103230006D6815F4003F03D0BE4D5543056002E0B4
:10324000BB4D5543056002E0B94D056000BF00BFAE
:10325000B54D203D6D6805F0F0010909B64D6B5C78
:103260000568DD404560B04D203D6D6805F4E061C6
:10327000090AB14D6B5C4568DD408560AA4D203D73
:103280006D6805F46051C90AAB4D6B5C4568DD4063
:10329000C560A54D203D6D6805F44041890BA74DE3
:1032A0006B5CC568B5FBF3F5056130BD70B50446D0
:1032B0000D4640F2575034EA000001D104B105E058
:1032C00040F22B41AFF2C010FDF7ECF80DB1012D2B
:1032D00000D105E040F22C41AFF2D410FDF7E2F846
:1032E0003DB191482038406920438F4920394861D9
:1032F00006E08D4820384069A0438B492039486159
:1033000070BD70B504460D468D48044201D104B12C
:1033100005E040F24A41AFF21020FDF7C3F80DB1CD
:10332000012D00D105E040F24B41AFF22420FDF722
:10333000B9F83DB17C482038806920437A4920396A
:10334000886106E0784820388069A04376492039B2
:10335000886170BD70B504460D467A48044201D1BB
:1033600004B105E040F26941AFF26420FDF79AF83C
:103370000DB1012D00D105E040F26A41AFF2782095
:10338000FDF790F83DB168482038C0692043664990
:103390002039C86106E064482038C069A04362490A
:1033A0002039C86170BD70B504460D4664480442BA
:1033B00001D104B105E040F2A441AFF2B420FDF721
:1033C00071F80DB1012D00D105E040F2A541AFF239
:1033D000C820FDF767F83DB153482038C068204346
:1033E00051492039C86006E04F482038C068A043E2
:1033F0004D492039C86070BD70B504460D4651482E
:10340000044201D104B105E040F2C341AFF20830FB
:10341000FDF748F80DB1012D00D105E040F2C4419F
:10342000AFF21C30FDF73EF83DB13F48203800694F
:1034300020433D492039086106E03B4820380069B7
:10344000A04339492039086170BD10B504460CB15C
:10345000012C00D105E04FF49B61AFF25430FDF731
:1034600021F832484038046010BD10B504460CB154
:10347000012C00D105E040F2E541AFF27430FDF7D8
:1034800011F83148C46410BD10B504463CB1052C98
:1034900005D0042C03D0062C01D0072C00D105E068
:1034A00040F20551AFF2A030FCF7FCFF1E48203877
:1034B000C47110BD1C482038406A40F080701A4921
:1034C00020394862704770B504460025012C09D0A8
:1034D000022C07D0042C05D0082C03D0102C01D0CE
:1034E000802C00D105E040F27E51AFF2E430FCF7D1
:1034F000D9FF0D4820388068204201D0012500E026
:103500000025284670BD10B5044614F0600F01D1A7
:1035100004B105E040F2AB51AFF21440FCF7C2FF3A
:1035200001482038847210BD2010024080044242BD
:1035300000127A0000093D00200000203000002029
:103540000200C0FF003601810000424270B504460F
:103550000D464FF6F870044201D104B103E05D213D
:1035600075A0FCF79FFF0DB1012D00D103E05E2196
:1035700071A0FCF797FF2DB17F48008820437E495A
:10358000088004E07C480088A0437B49088070BD27
:103590007948001D008840F010007749091D088017
:1035A00070477548001D00884FF6EF71084072495A
:1035B000091D0880704700216F481C300188001FDA
:1035C000008841EA0040704700B50246FFF7E0FF7F
:1035D000100C694918310880091D0A80FFF7E1FFC6
:1035E00000BD10B50446B4F5801F00D203E0A3214E
:1035F00051A0FCF757FFFFF7CBFFC4F303405E4930
:1036000008310880091D0C80FFF7CBFF10BD00B505
:103610000246FFF7BDFF100C574920310880091DF5
:103620000A80FFF7BEFF00BD002053491031098812
:103630000907080B5049143109880843704700BF37
:103640004D48001D008810F0200FF9D070474A48FF
:10365000001D00884FF6F77108404749091D088092
:1036600000BF4548001D008810F0080FF9D07047D2
:1036700070B504460025202C07D0082C05D0042C5A
:1036800003D0022C01D0012C00D103E0F9212AA0A3
:10369000FCF708FF3848001D0088204201D00125B2
:1036A00000E00025284670BD10B504464FF6F070C6
:1036B000044201D104B104E04FF48A711EA0FCF76A
:1036C000F1FE2D48001D0088A0432B49091D0880EC
:1036D00010BD70B504460025042C03D0022C01D087
:1036E000012C00D104E040F2271113A0FCF7DAFE10
:1036F0002148001D00882040C5B21F480088204294
:1037000002D00DB1012500E00025284670BD10B59E
:1037100004464FF6F870044201D104B104E040F2CF
:10372000411105A0FCF7BEFE1348001D0088A04310
:103730001149091D088010BD2E2E5C7468697264E1
:103740005F706172745C53544D3332463130785F30
:103750005374645065726970685F4472697665720B
:103760005C7372635C73746D3332663130785F7290
:1037700074632E63000000000028004010B504466A
:10378000FE4884420BD0FE48844208D0FD48844263
:1037900005D0FD48844202D0FC48844200D103E0B9
:1037A0008521FBA0FCF77EFEF448844209D101216B
:1037B0008803FFF7F8FD00214FF48040FFF7F3FD89
:1037C00032E0EF48844209D101214804FFF714FE9A
:1037D00000214FF40030FFF70FFE25E0E948844256
:1037E00009D101218804FFF707FE00214FF4802052
:1037F000FFF702FE18E0E448844209D10121C80421
:10380000FFF7FAFD00214FF40020FFF7F5FD0BE074
:10381000DE48844208D101210805FFF7EDFD0021B3
:103820004FF48010FFF7E8FD10BD2DE9F04786B09A
:1038300005460C460026B24600BFB1460027CF48D9
:1038400085420BD0CE48854208D0CE48854205D06F
:10385000CD48854202D0CD48854200D103E0B82151
:10386000CBA0FCF71FFE206820B1D9492068884210
:1038700000D203E0B921C6A0FCF714FEA08818B15D
:10388000A088B0F5805F00D103E0BA21C0A0FCF7AA
:1038900009FEE08858B1E088B0F5805F07D0E08885
:1038A000B0F5005F03D0E088B0F5405F00D103E0E1
:1038B000BB21B7A0FCF7F6FD208938B12089B0F50F
:1038C000806F03D02089B0F5C06F00D103E0BC2128
:1038D000AFA0FCF7E7FD60894FF6F371084202D113
:1038E000608900B103E0BD21A9A0FCF7DBFDA08940
:1038F00058B1A089B0F5807F07D0A089B0F5007FCE
:1039000003D0A089B0F5407F00D103E0BE21A0A084
:10391000FCF7C8FDA08968B19848854205D0984851
:10392000854202D09748854200D103E0C22198A089
:10393000FCF7B8FD2F462E8A4CF6FF700640E08853
:1039400006432E82AE894EF6F3100640A0882189E8
:103950000843618908430643AE81AE8A4FF6FF40B3
:103960000640A0890643AE8201A8FFF737FC8348D2
:10397000874202D1DDF810A001E0DDF80CA0A88993
:1039800010F4004F08D00AEBCA0000EB0A102168BF
:103990004900B0FBF1F807E00AEBCA0000EB0A109F
:1039A00021688900B0FBF1F86420B8FBF0F0060153
:1039B0003009642101FB1089A88910F4004F08D058
:1039C000322000EBC900B0FBF1F000F00700064325
:1039D00008E0322000EB09106421B0FBF1F000F0A8
:1039E0000F0006432E8106B0BDE8F0874FF4165154
:1039F000016000218180C18001810C214181002171
:103A00008181704770B505460C4600265B488542AB
:103A100005D05B48854202D05A48854200D104E077
:103A20004FF499715AA0FCF73DFD208818B1208809
:103A3000B0F5006F00D104E040F2331154A0FCF760
:103A400031FD608818B16088B0F5806F00D104E066
:103A50004FF49A714EA0FCF725FDA08818B1A088FC
:103A6000B0F5007F00D104E040F2351148A0FCF72A
:103A700019FDE08818B1E088B0F5807F00D104E03E
:103A80004FF49B7142A0FCF70DFD2E8A4FF2FF0010
:103A90000640208861880843A1880843E1880843DC
:103AA00006432E8270BD0021018041808180C1804B
:103AB000704770B504460D46304884420BD03048FC
:103AC000844208D02F48844205D02F48844202D037
:103AD0002E48844200D104E04FF4B1712CA0FCF7D1
:103AE000E1FC0DB1012D00D104E040F2631128A0EA
:103AF000FCF7D8FC25B1A08940F40050A08104E077
:103B0000A0894DF6FF710840A08170BD2DE9F047F6
:103B100005460C4617464FF00008C246C14600262F
:103B2000164885420BD01648854208D01548854274
:103B300005D01548854202D01448854200D104E0E2
:103B400040F2891112A0FCF7ADFC282C45D0A4F559
:103B5000E060273841D0A4F5C06026383DD0A4F5F8
:103B6000A060253839D0A4F58060243835D0A4F57C
:103B70000060463831D0B0F592702BE0003801403B
:103B80000044004000480040004C0040005000400D
:103B90002E2E5C74686972645F706172745C535439
:103BA0004D3332463130785F5374645065726970BA
:103BB000685F4472697665725C7372635C73746D7E
:103BC0003332663130785F75736172742E63000032
:103BD00021AA440001D0602C00D105E04FF4C5714A
:103BE000AFF25400FCF75EFC0FB1012F00D105E0ED
:103BF00040F28B11AFF26800FCF754FCA4F51060A2
:103C00006A380FD1F948854205D0F948854202D07B
:103C1000F848854200D105E040F28F11AFF29000E4
:103C2000FCF740FC2E46C4F3421804F01F0A0120A2
:103C300000FA0AF9B8F1010F01D10C3605E0B8F12C
:103C4000020F01D1103600E0143627B1306840EA87
:103C50000900306003E0306820EA09003060BDE808
:103C6000F08770B504460D461646E04884420BD0F6
:103C7000DF48844208D0DF48844205D0DE488442D1
:103C800002D0DE48844200D105E040F2C311AFF219
:103C90000010FCF707FC4FF63F70054201D105B15B
:103CA00005E04FF4E271AFF21810FCF7FBFB0EB128
:103CB000012E00D105E040F2C511AFF22C10FCF747
:103CC000F1FB1EB1A08A2843A08202E0A08AA8438B
:103CD000A08270BD70B504460D46C44884420BD026
:103CE000C348844208D0C348844205D0C2488442B5
:103CF00002D0C248844200D105E040F2DF11AFF2A9
:103D00007010FCF7CFFB0F2D00DC05E04FF4F071D5
:103D1000AFF28410FCF7C6FB208A4FF6F071084022
:103D20002082208A2843208270BD70B504460D464B
:103D3000AE4884420BD0AE48844208D0AD4884429D
:103D400005D0AD48844202D0AC48844200D105E0A1
:103D50004FF4FB71AFF2C810FCF7A4FB15B1B5F539
:103D6000006F00D105E040F2F711AFF2DC10FCF774
:103D700099FBA0894FF2FF710840A081A0892843D8
:103D8000A08170BD70B504460D46984884420BD0A2
:103D90009748844208D09748844205D09648844288
:103DA00002D09648844200D105E040F20921AFF2EA
:103DB0002020FCF777FB0DB1012D00D105E040F28A
:103DC0000A21AFF23420FCF76DFB25B1A08940F049
:103DD0000200A08104E0A0894FF6FD710840A08197
:103DE00070BD70B504460D46804884420BD08048B3
:103DF000844208D07F48844205D07F48844202D064
:103E00007E48844200D105E040F22621AFF28020B6
:103E1000FCF748FB0DB1202D00D105E040F2272131
:103E2000AFF29420FCF73EFB208A4FF6DF7108408A
:103E30002082208A2843208270BD70B504460D463A
:103E40006A4884420BD06A48844208D06948844258
:103E500005D06948844202D06848844200D105E018
:103E600040F23921AFF2D820FCF71CFB0DB1012D37
:103E700000D105E040F23A21AFF2EC20FCF712FB52
:103E800025B1208A40F48040208204E0208A4BF64D
:103E9000FF710840208270BD70B504460D4653483E
:103EA00084420BD05248844208D05248844205D004
:103EB0005148844202D05148844200D105E040F28A
:103EC0005321AFF23430FCF7EDFAB5F5007F00DA9C
:103ED00005E04FF41571AFF24830FCF7E3FAC5F393
:103EE0000800A08070BD10B50446404884420BD045
:103EF0003F48844208D03F48844205D03E4884422F
:103F000002D03E48844200D105E04FF41971AFF26F
:103F10008030FCF7C7FAA088C0F3080010BD10B5C8
:103F20000446324884420BD03148844208D031489C
:103F3000844205D03048844202D03048844200D1C7
:103F400005E04FF41D71AFF2B830FCF7ABFAA08971
:103F500040F00100A08110BD70B504460D46234815
:103F6000844205D02248844202D02248844200D1B3
:103F700005E04FF42171AFF2E830FCF793FA208BA3
:103F8000C0B22083208B40EA0520208370BD70B52D
:103F900004460D46154884420BD01548844208D08B
:103FA0001448844205D01448844202D01348844205
:103FB00000D105E04FF42671AFF22C40FCF772FA05
:103FC000208B00F47F402083208B2843208370BD0A
:103FD00070B504460D460548844205D00448844225
:103FE00002D0044884420BD110E0000000380140A8
:103FF0000044004000480040004C00400050004099
:1040000040F2AB21AFF27840FCF74CFA0DB1012D34
:1040100000D105E04FF42B71AFF28C40FCF742FA6F
:1040200025B1A08A40F02000A08204E0A08A4FF6CB
:10403000DF710840A08270BD70B504460D46F84897
:10404000844205D0F748844202D0F748844200D128
:1040500005E04FF43171AFF2C840FCF723FA0DB11F
:10406000012D00D105E040F2C521AFF2DC40FCF7A4
:1040700019FA25B1A08A40F01000A08204E0A08ABD
:104080004FF6EF710840A08270BD70B504460D4632
:10409000E34884420BD0E348844208D0E24884429B
:1040A00005D0E248844202D0E148844200D105E0D4
:1040B00040F2DE21AFF22850FCF7F4F90DB1012DEA
:1040C00000D105E040F2DF21AFF23C50FCF7EAF905
:1040D00025B1A08A40F00800A08204E0A08A4FF633
:1040E000F7710840A08270BD70B504460D46CC48FB
:1040F00084420BD0CB48844208D0CB48844205D0C0
:10410000CA48844202D0CA48844200D105E040F245
:10411000FD21AFF28450FCF7C5F90DB1012D00D19E
:1041200005E040F2FE21AFF29850FCF7BBF925B153
:10413000A08940F40040A08103E0A089C0F30E00F4
:10414000A08170BD70B504460D46B54884420BD0C1
:10415000B448844208D0B448844205D0B34884426D
:1041600002D0B348844200D105E04FF44671AFF26B
:10417000E050FCF797F90DB1012D00D105E040F2B8
:104180001931AFF2F450FCF78DF925B1A08A40F453
:104190000060A08204E0A08A4FF2FF710840A08274
:1041A00070BD70B504460D469D4884420BD09D48B5
:1041B000844208D09C48844205D09C48844202D066
:1041C0009B48844200D105E040F23531AFF24060B7
:1041D000FCF768F9042D00D005B905E040F236314E
:1041E000AFF25460FCF75EF9A08A4FF6FB7108400D
:1041F000A082A08A2843A08270BD70B504460D46F7
:10420000874884420BD08748844208D0864884423D
:1042100005D08648844202D08548844200D105E01A
:104220004FF45271AFF29860FCF73CF90DB1012DDB
:1042300000D105E040F24931AFF2AC60FCF732F951
:1042400025B1A08A40F00200A08204E0A08A4FF6C7
:10425000FD710840A08270BD70B505460C46002671
:104260006F4885420BD06F48854208D06E48854222
:1042700005D06E48854202D06D48854200D105E0E8
:1042800040F26E31AFF2F860FCF70CF9012C13D05C
:10429000802C11D0402C0FD0202C0DD0102C0BD006
:1042A000B4F5807F08D0B4F5007F05D0082C03D08A
:1042B000042C01D0022C00D105E040F26F31AFF2A6
:1042C0003070FCF7EFF8B4F5007F0FD15448854209
:1042D00005D05448854202D05348854200D105E0BC
:1042E00040F27331AFF25870FCF7DCF828882042B6
:1042F00001D0012600E00026304670BD70B50446AE
:104300000D46474884420BD04648844208D0464870
:10431000844205D04548844202D04548844200D1B9
:1043200005E040F29E31AFF29870FCF7BBF84FF613
:104330009F40054201D105B105E040F29F31AFF247
:10434000B070FCF7AFF805F40070B0F5007F0FD146
:104350003348844205D03348844202D032488442F4
:1043600000D105E040F2A331AFF2DC70FCF79AF81F
:10437000E843208070BD2DE9F04705460C46002734
:104380000026B046B146264885420BD025488542D6
:1043900008D02548854205D02448854202D02448CB
:1043A000854200D105E040F2C131AFF61C00FCF7B8
:1043B00079F8282C1FD0A4F5E06027381BD0A4F58D
:1043C000C060263817D0A4F5A060253813D0A4F516
:1043D000806024380FD0A4F5006046380BD0B0F5CB
:1043E000927008D0B4F5587F05D0B4F5187F02D08C
:1043F000B4F5B07F00D105E040F2C231AFF67000F5
:10440000FCF750F8A4F510606A3819D104488542C9
:1044100005D00448854202D0034885420AD10FE006
:10442000003801400044004000480040004C00407B
:104430000050004040F2C631AFF6AC00FCF732F855
:10444000C4F3421804F01F06012000FA06F6B8F182
:10445000010F02D1A889064007E0B8F1020F02D18E
:10446000288A064001E0A88A06402712012000FAA7
:1044700007F7288807401EB117B14FF0010901E086
:104480004FF000094846BDE8F0872DE9F0410446A9
:104490000D4600260027244884420BD0234884423E
:1044A00008D02348844205D02248844202D02248C2
:1044B000844200D105E040F20A41AFF62C10FBF730
:1044C000F1FFA5F5C06026380AD0A5F5A060253813
:1044D00006D0A5F50060463802D0B0F5927000D144
:1044E00005E040F20B41AFF65810FBF7DBFFA5F5F6
:1044F00010606A380FD10C48844205D00B488442C2
:1045000002D00B48844200D105E040F20F41AFF6E3
:104510008010FBF7C7FF2E120120B04087B2F8438E
:104520002080BDE8F08100000038014000440040D8
:1045300000480040004C0040005000400CB50020F6
:10454000019000906B48006840F480306949086031
:1045500000BF6848006800F4003000900198401CDB
:104560000190009818B90198B0F5A06FF1D1614899
:10457000006810F4003F02D00120009001E000200C
:1045800000900098012842D15B48006840F010007C
:10459000594908600846006820F003000860084692
:1045A000006840F002000860524840685149486085
:1045B0000846406848600846406840F480604860AB
:1045C0000846406820F47C1048600846406840F483
:1045D000E81048600846006840F08070086000BF3E
:1045E0004448006810F0007FFAD04248406820F04C
:1045F0000300404948600846406840F002004860B7
:1046000000BF3C48406800F00C000828F9D10CBD00
:1046100010B5FFF793FF10BD10B53648006840F0A5
:10462000010034490860084640683449084031496F
:10463000486008460068324908402E49086008462C
:10464000006820F4802008600846406820F4FE00DE
:1046500048604FF41F008860FFF7DAFF4FF00060FA
:104660002849086010BD10B5002100200022214B10
:104670005B6803F00C0121B1042906D0082928D178
:1046800007E0214B214C236027E01F4B1F4C236088
:1046900023E0184B5B6803F47010164B5B6803F45F
:1046A0008032022303EB904022B9194B4343174C4D
:1046B00023600DE00F4B5B6813F4003F04D0144BF4
:1046C0004343124C236003E00F4B43430F4C2360E2
:1046D00003E00D4B0D4C236000BF00BF054B5B6832
:1046E000C3F303130B4CE15C084B1B68CB40074C36
:1046F000236010BD00100240002002400000FFF8BF
:10470000FFFFF6FE08ED00E000127A003400002002
:1047100000093D003800002009488047094800474B
:10472000FEE7FEE7FEE7FEE7FEE7FEE7FEE7FEE761
:10473000FEE7FEE704480549054A064B70470000BE
:10474000194600083101000800180020001E002052
:10475000001A0020001A00207047174800687047B0
:1047600070B50446FCF762FD054613480460284610
:10477000FCF760FD70BD10B50F480068401C0E4985
:10478000086003F02DFF0446A06C401EA064A06CDE
:1047900018B9606CA06404F014F804F015FB10BDA7
:1047A0000146642201FB02F000F2E7304FF47A7216
:1047B000B0FBF2F070470000480000202DE9F04106
:1047C000064603F00DFF08B103F08AFDC74D6C6883
:1047D00010E0A4F10C0708223146384601F0FFFF33
:1047E00038B903F0FDFE08B103F088FD3846BDE896
:1047F000F0812468281D8442EBD103F0F1FE08B15A
:1048000003F07CFD0020F2E770B504460D46164625
:1048100014B94FF0FF3070BD2846FFF7CFFF10B13D
:104820004FF0FF30F7E72A460721204603F07BFAD6
:10483000E6820020EFE738B504466CB9002000900E
:104840003A23AB4AABA1AFA002F05CFA00BF9DF8DF
:1048500000000028FBD000BF204603F08AFA0020A9
:1048600038BD2DE9F041A14F7E6819E0A6F10C0496
:10487000D4F82480B8F1000F11D0A07D10F0100FF3
:104880000DD12046C04705462DB12A462146A5A098
:1048900002F038FA03E0E08A40F01000E082366867
:1048A000381D8642E2D10020BDE8F08138B50446CB
:1048B00000256CB900200090A823A84A8DA191A0E2
:1048C00002F020FA00BF9DF800000028FBD000BFD6
:1048D000606A90B1A07D10F0100F0ED12046616A81
:1048E000884705462DB12A4621468EA002F00AFAD5
:1048F00003E0E08A40F01000E082284638BDF8B5B9
:1049000004460E4600256CB900200090CB23944A43
:1049100078A17CA002F0F6F900BF9DF80000002805
:10492000FBD000BFA07D10F0100F11D1606A58B10C
:104930002046616A8847054635B12A46214679A056
:1049400002F0E0F92846F8BDE08A40F01000E0826D
:10495000A07D10F0080F06D0207E10F0080F02D0C6
:104960006FF00600EFE7A06A20B131462046A26A48
:10497000904705460DB1A81D02D146F008002083DE
:104980002846E0E738B5044600256CB900200090C1
:10499000FF23744A57A15BA002F0B4F900BF9DF851
:1049A00000000028FBD000BFE06A18B12046E16A91
:1049B000884705460DB1A81D01D100202083284657
:1049C00038BDF8B504460D4616461F4674B900209A
:1049D00000904FF49073644A46A14AA002F092F905
:1049E00000BF9DF800000028FBD000BF206B38B14D
:1049F0003B46324629462046D4F830C0E047F8BD51
:104A00006FF0050001F0DEFD0020F8E7F8B5044680
:104A10000D4616461F4674B9002000904FF4A0734F
:104A2000524A34A137A002F06DF900BF9DF8000092
:104A30000028FBD000BF606B38B13B4632462946A8
:104A40002046D4F834C0E047F8BD6FF0050001F00F
:104A5000B9FD0020F8E7F8B504460D46164674B9CE
:104A6000002000904FF4AD73414A22A125A002F02E
:104A700049F900BF9DF800000028FBD000BFA06BE3
:104A800028B1324629462046A36B9847F8BD00203E
:104A9000FCE738B504460D4674B90020009040F29A
:104AA0007313344A13A117A002F02CF900BF9DF82C
:104AB00000000028FBD000BFE561002038BD38B5FC
:104AC00004460D4674B9002000904FF4C4732A4A7E
:104AD00008A10CA002F016F900BF9DF80000002804
:104AE000FBD000BF2562002038BD0000F40000208C
:104AF00000FC000864657620213D2052545F4E552D
:104B00004C4C000028257329206173736572742052
:104B10006661696C65642061742025733A256420A0
:104B20000A000000546F20696E697469616C697ACB
:104B300065206465766963653A2573206661696CF2
:104B400065642E20546865206572726F7220636FF1
:104B500064652069732025640A00000015FC0008C4
:104B600024FC000833FC000843FC000852FC000849
:104B700062FC000874FC00088EFC00083F490860D5
:104B80007047F8B53E4800F070F800284ED100BFDD
:104B9000FCF74CFB064601F0FFFC88B139493AA00E
:104BA00002F0B0F8002000904923364A3FA140A00F
:104BB00002F0A8F800BF9DF800000028FBD000BF5D
:104BC0003046FCF737FB00BFFCF730FB05462C48AE
:104BD00000F04BF8E0B92A480068A0F1140404F191
:104BE0001400D0E900215160D0E90012116040604A
:104BF000006000BFA06F10B12046A16F884720461B
:104C000003F063F9012807D12846FCF713FBF8BD30
:104C10002846FCF70FFBFAE72846FCF70BFBA06AD7
:104C200002F018FC204603F014F900BF00BFEEE7C5
:104C300007E01248006810B1104800688047FFF78D
:104C4000A0FFF6E71FB520201F21C200204BCDE9B1
:104C50000032CDE9021000231E4A1FA1204803F0B4
:104C600088FC1F4803F0F5FC1FBD01460868884218
:104C700001D1012070470020FCE700004C0000201B
:104C800038010020A8FC000846756E6374696F6ED9
:104C90005B25735D207368616C6C206E6F7420758A
:104CA00073656420696E204953520A003000000089
:104CB0002825732920617373657274206661696C9D
:104CC00065642061742025733A2564200A00000081
:104CD00010080020314C00087469646C6500000005
:104CE000900700204268116042684A604160086095
:104CF00070472DE9F04105460C469046204603F0EA
:104D0000FEFDB8F1000F03D0B8F1010F23D105E08B
:104D100004F114012846FFF7E5FF1CE02E680FE0C0
:104D2000A6F1140794F8350097F83510884206DA92
:104D300004F1140107F11400FFF7D4FF02E0366814
:104D4000AE42EDD100BFAE4204D104F114012846B9
:104D5000FFF7C8FF00BF00BF0020BDE8F08170B5BD
:104D600005460EE0FCF762FA06462868A0F1140436
:104D70004FF0FF302063204603F035FC3046FCF74F
:104D800059FA284601F0C5FB0028EBD0002070BD81
:104D9000F8B504460D4616461F466CB90020009033
:104DA000CD23F84AF8A1FCA001F0ACFF00BF9DF8AC
:104DB00000000028FBD000BF2A460121204602F057
:104DC000B2FF204601F0ADFBA68367720020F8BD5C
:104DD00038B504466CB900200090EA23F64AEAA1EF
:104DE000EDA001F08FFF00BF9DF800000028FBD070
:104DF00000BF04F11400FFF7B2FF204602F0B9FF34
:104E0000002038BD2DE9F84305460E46174600BF81
:104E1000FCF70CFA804601F0BFFB90B1E749E8A02F
:104E200001F070FF002000904FF48373E34AEDA17E
:104E3000D9A001F067FF00BF9DF800000028FBD05B
:104E400000BF4046FCF7F6F900BF2946012002F0FA
:104E5000B5FF044614B92046BDE8F883204601F0AA
:104E600060FBA68367722046F6E738B5044600BFAC
:104E7000FCF7DCF9054601F08FFB90B1DA49D0A0D0
:104E800001F040FF0020009040F22513D64AD5A142
:104E9000C1A001F037FF00BF9DF800000028FBD043
:104EA00000BF2846FCF7C6F900BF74B90020009087
:104EB00040F22713CC4AB4A1B7A001F023FF00BFF2
:104EC0009DF800000028FBD000BF04F11400FFF79C
:104ED00046FF204602F0BDFF002038BDF3B581B08B
:104EE000054675B9002000904FF4A173BF4AA6A1F2
:104EF000A9A001F007FF00BF9DF800000028FBD02B
:104F000000BF00BFBA48006818B12846B849096810
:104F1000884700BFFCF78AF9064600BF00BFA88B90
:104F2000002806DDA88B401EA8833046FCF782F9D6
:104F30004AE0029828B93046FCF77CF96FF001008E
:104F4000FEBD00BFFCF772F9074601F025FB90B1EA
:104F5000A6499BA001F0D6FE002000904FF4B1734B
:104F6000A24AA0A18CA001F0CDFE00BF9DF80000D8
:104F70000028FBD000BF3846FCF75CF900BF03F007
:104F80002FFB04460020206300BF00BF6A7A214641
:104F900005F11400FFF7ADFE029800280BDD00BFFD
:104FA00000BF02AA002104F14C0003F0DEFE04F170
:104FB0004C0003F036FE3046FCF73CF903F0BCF839
:104FC000206B08B1206BBBE700BF8A48006818B1AE
:104FD000284688490968884700BF0020B0E710B517
:104FE000044600212046FFF779FF10BD70B5044646
:104FF00000BF8148006818B120467F49096888478A
:1050000000BF0025FCF712F9064600BF00BF04F1FF
:10501000140001F07EFA28B904F1140001F089FAB5
:10502000012502E0A08B401CA0833046FCF702F96A
:10503000012D01D103F080F8002070BD2DE9F84367
:1050400004460E46154674B90020009040F2D9136C
:105050006A4A4DA150A001F055FE00BF9DF8000026
:105060000028FBD000BF012E10D12F46FCF7DEF840
:10507000804604F11400FFF772FEA7834046FCF758
:10508000D9F803F059F80020BDE8F8834FF0FF305D
:10509000FAE7F8B504460D46164674B900200090AC
:1050A0004FF40173564A57A13BA001F02BFE00BFFD
:1050B0009DF800000028FBD000BF2A4602212046B0
:1050C00002F031FE204601F02CFA0120A0830020DE
:1050D0002062FF20A0770020E0776672F8BD38B527
:1050E000044674B90020009040F223234A4A45A1A7
:1050F00029A001F007FE00BF9DF800000028FBD0AA
:1051000000BF04F11400FFF72AFE204602F031FE32
:10511000002038BDF8B505460E4600BFFCF786F8FE
:10512000074601F039FA90B13C4925A001F0EAFDAB
:105130000020009040F23E23384A2AA116A001F038
:10514000E1FD00BF9DF800000028FBD000BF3846FD
:10515000FCF770F800BF2946022002F02FFE04463B
:105160000CB92046F8BD204601F0DBF90120A083F0
:1051700000202062FF20A0770020E07766722046A2
:10518000F0E70000BEFC000873656D20213D205251
:10519000545F4E554C4C00002825732920617373D1
:1051A000657274206661696C656420617420257382
:1051B0003A2564200A000000CAFC0008D8FC000858
:1051C00046756E6374696F6E5B25735D20736861ED
:1051D0006C6C206E6F74207573656420696E204955
:1051E00053520A0030000000E6FC0008F4FC0008FE
:1051F0001C010020200100202401002000FD0008E7
:105200000FFD00086D7574657820213D2052545FB4
:105210004E554C4C000000001DFD00082DFD0008FF
:1052200038B5044600BFFCF701F8054601F0B4F9B3
:10523000A8B1FE49AFF2780001F064FD00200090B3
:1052400040F25F23F94AAFF26401AFF2B40001F01B
:1052500059FD00BF9DF800000028FBD000BF284684
:10526000FBF7E8FF00BF84B90020009040F2612303
:10527000EE4AAFF27001AFF2E00001F043FD00BF73
:105280009DF800000028FBD000BF04F11400FFF7D8
:1052900066FD204602F0DDFD002038BDF3B581B08B
:1052A000044600BFFBF7C2FF074601F075F9A8B13D
:1052B000DF49AFF2F40001F025FD0020009040F23C
:1052C0007D23DB4AAFF2E401AFF2341001F01AFDA6
:1052D00000BF9DF800000028FBD000BF3846FBF758
:1052E000A9FF00BF84B90020009040F27F23D04A7C
:1052F000AFF2F001AFF2601001F004FD00BF9DF8C5
:1053000000000028FBD000BFFBF790FF064603F02B
:1053100067F9054600BFC748006818B12046C5496F
:105320000968884700BF00BF00BF00202863206ACB
:10533000A84203D1E07F401CE07748E0A08B002822
:105340000ADDA08B401EA083256295F83500A0776A
:10535000E07F401CE0773AE0029840B96FF001002E
:1053600028633046FBF766FF6FF00100FEBD00BF0B
:1053700000BF95F83500216A91F83510884205DAAA
:1053800005F135020221206A03F01DFB627A2946ED
:1053900004F11400FFF7ADFC029800280BDD00BFFC
:1053A00000BF02AA002105F14C0003F0DEFC05F16C
:1053B0004C0003F036FC3046FBF73CFF02F0BCFE2D
:1053C000286B08B1286BD1E7FBF730FF0646304663
:1053D000FBF730FF00BF9848006818B12046964997
:1053E0000968884700BF0020C0E72DE9F041044666
:1053F000002703F0F5F80546FBF718FF064600BF47
:1054000000BF00BF8D48006818B120468B4909686D
:10541000884700BF206AA84209D04FF0FF302863B8
:105420003046FBF707FF4FF0FF30BDE8F081E07F2B
:10543000401EE077E07F08BBA07F216A91F835101D
:10544000884205D004F11E020221206A03F0BBFA53
:1054500004F1140001F05DF888B96069A0F1140549
:1054600000BF00BF256295F83500A077E07F401CA3
:10547000E07704F1140001F05CF8012706E0A08B4E
:10548000401CA08300202062FF20A0773046FBF75D
:10549000D1FE012F01D102F04FFE0020C5E70346E7
:1054A0004FF0FF307047F8B504460D4616467CB9FC
:1054B0000020009040F26D33614A62A1AFF22830C3
:1054C00001F020FC00BF9DF800000028FBD000BFC9
:1054D0002A460321204602F026FC6672204601F08F
:1054E00020F80020E061F8BD38B504467CB9002002
:1054F000009040F28933584A52A1AFF2643001F073
:1055000001FC00BF9DF800000028FBD000BF04F1A3
:105510001400FFF724FC204602F02BFC002038BDCD
:10552000F8B505460E4600BFFBF780FE074601F0C2
:1055300033F8A8B14949AFF2783001F0E3FB00201D
:10554000009040F2A233454AAFF26831AFF2B83072
:1055500001F0D8FB00BF9DF800000028FBD000BF81
:105560003846FBF767FE00BF2946032002F026FC01
:1055700004460CB92046F8BD6672204600F0D1FF03
:105580000020E0612046F6E738B504467CB90020EB
:1055900000904FF47073324A2AA1AFF2044001F038
:1055A000B1FB00BF9DF800000028FBD000BF00BF8A
:1055B000FBF73CFE054600F0EFFFA8B12849AFF22B
:1055C000004001F09FFB0020009040F2C233244ACB
:1055D000AFF2F031AFF2404001F094FB00BF9DF814
:1055E00000000028FBD000BF2846FBF723FE00BFC9
:1055F00004F11400FFF7B3FB204602F02AFC002060
:1056000038BD2DE9F84F04460F466CBB00200090D2
:1056100040F2E133134A0BA1AFF2844001F072FB78
:1056200000BF9DF800000028FBD01EE03DFD0008F3
:105630004DFD00081C010020200100202401002055
:105640005BFD00086576656E7420213D2052545F35
:105650004E554C4C0000000069FD000879FD000823
:1056600089FD000899FD000800E000BF1FB94FF058
:10567000FF30BDE8F88F4FF0000800BFFE4800681B
:1056800018B12046FC490968884700BFFBF7CEFDEA
:105690008246E0693843E06104F1140000F039FF0C
:1056A000C0BB666932E0A6F114054FF0FF3995F8EA
:1056B000400010F0010F08D0E86BE1690840E96B89
:1056C000884211D14FF000090EE095F8400010F02B
:1056D000020F09D0E86BE169084205D0E86BE16987
:1056E0000840E8634FF000093668B9F1000F0DD1AA
:1056F00095F8400010F0040F03D0E069E96B88438F
:10570000E061284602F06FFF4FF0010804F1140039
:105710008642C8D15046FBF78DFDB8F1010F01D18B
:1057200002F00AFD0020A4E72DE9FF4F81B00546F5
:105730000E461746DDF8388000BFFBF777FD83463D
:1057400000F02AFFA8B1CD49AFF28C5001F0DAFA8F
:10575000002000904FF48863C84AAFF27851AFF24E
:10576000C85001F0CFFA00BF9DF800000028FBD020
:1057700000BF5846FBF75EFD00BF85B900200090D2
:1057800040F24343BD4AAFF24411AFF2F45001F08E
:10579000B9FA00BF9DF800000028FBD000BF26B971
:1057A0004FF0FF3005B0BDE8F08F4FF0FF3902F049
:1057B00017FF04460021216300BFB148006818B1FB
:1057C0002846AF490968884700BFFBF72FFD82468E
:1057D00017F0010F06D0E8693040B0420AD14FF00F
:1057E000000907E017F0020F04D0E869304201D049
:1057F0004FF00009B9F1000F0AD1E8693040C8F84C
:10580000000017F0040F2ED0E869B043E8612AE0E9
:10581000049818B96FF00100206324E0E66384F86F
:1058200040706A7A214605F11400FFF762FA049885
:10583000002809DD04AA002104F14C0003F095FAC8
:1058400004F14C0003F0EDF95046FBF7F3FC02F0D5
:1058500073FC206B08B1206BA4E7FBF7E7FC8246E2
:10586000E06BC8F800005046FBF7E4FC00BF854839
:10587000006818B1284683490968884700BF206B33
:1058800090E7F8B504460D46174684B9002000900D
:1058900040F2AA437C4AAFF25421AFF2047001F007
:1058A00031FA00BF9DF800000028FBD000BF012D99
:1058B0000FD1FBF7BBFC064604F11400FFF74FFACB
:1058C0000020E0613046FBF7B5FC02F035FC00201B
:1058D000F8BD4FF0FF30FBE72DE9F84304460D46D5
:1058E00016461F46DDF820807CB90020009040F26B
:1058F000D743664A66A1AFF2607001F003FA00BFB9
:105900009DF800000028FBD000BF2A460421204655
:1059100002F009FA84F80980204600F002FEE661F0
:10592000278400206084A084E08404F1280000F033
:10593000EDFD0020BDE8F88338B504467CB90020B1
:10594000009040F2FA43564A51A1AFF2B47001F010
:10595000D9F900BF9DF800000028FBD000BF04F17A
:105960001400FFF7FCF904F12800FFF7F8F92046CE
:1059700002F0FFF9002038BD2DE9F84305460E4638
:10598000174600BFFBF752FC804600F005FEA8B1A9
:105990004449AFF2D47001F0B5F90020009040F214
:1059A0001653404AAFF2C471AFF6140001F0AAF9E1
:1059B00000BF9DF800000028FBD000BF4046FBF769
:1059C00039FC00BF2946042002F0F8F9044614B956
:1059D0002046BDE8F8836772204600F0A2FD2684C9
:1059E000218C880001F062FBE061E06920B920466B
:1059F00002F02FFA0020ECE700206084A084E0840D
:105A000004F1280000F082FD2046E2E738B50446A4
:105A100000BFFBF70BFC054600F0BEFDA8B1224914
:105A2000AFF6640001F06EF90020009040F241539F
:105A30001D4AAFF65001AFF6A00001F063F900BFB8
:105A40009DF800000028FBD000BF2846FBF7F2FBC2
:105A500000BF7CB90020009040F24453124A0CA1D0
:105A6000AFF6CC0001F04EF900BF9DF80000002811
:105A7000FBD000BF1AE0000024010020A7FD0008B1
:105A80001C01002020010020B5FD0008C6FD000813
:105A90006D6220213D2052545F4E554C4C00000059
:105AA000D1FD0008DEFD0008EBFD000804F1140044
:105AB000FFF755F904F12800FFF751F9E06901F00B
:105AC000C9FC204602F0C5F9002038BD2DE9F74396
:105AD00082B004460F4684B90020019040F2715311
